:020000040800F2
:1000000000000220B5C8000805C9000805C900089D
:1000100005C9000805C9000805C90008000000005E
:10002000000000000000000000000000C5C1000842
:10003000ADC1000800000000B9C10008D1C100082E
:1000400005C9000805C9000805C9000805C9000858
:1000500005C9000805C90008F9BF00081DC000084F
:1000600041C0000865C0000889C0000805C9000833
:1000700005C9000805C9000805C9000805C9000828
:1000800005C9000805C9000805C9000805C9000818
:1000900005C9000805C9000805C90008ADC0000869
:1000A00005C9000805C9000805C9000805C90008F8
:1000B00005C9000805C9000805C9000805C90008E8
:1000C00005C9000805C9000805C9000805C90008D8
:1000D00005C9000805C9000805C9000805C90008C8
:1000E0001DC1000805C9000805C9000805C90008A8
:1000F00005C9000805C9000805C9000805C90008A8
:1001000005C9000805C9000805C9000805C9000897
:1001100005C9000805C9000859B2000805C900084A
:1001200005C9000805C9000805C9000805C9000877
:1001300005C90008000000000000000005C9000813
:1001400005C9000805C9000805C9000805C9000857
:1001500005C9000805C9000805C9000805C9000847
:1001600005C9000805C9000805C9000805C9000837
:1001700005C9000805C9000805C9000800000000FD
:100180000000000005C90008000000000000000099
:1001900005C90008000000000000000005C90008B3
:1001A00000000000000000000000000005C9000879
:1001B00005C9000805C9000805C9000805C90008E7
:0401C00005C9000865
:1080000010B5054C237833B9044B13B10448AFF3D2
:1080100000800123237010BD7400002000000000C8
:108020002CD30008084B10B51BB108490848AFF322
:1080300000800848036803B910BD074B002BFBD034
:10804000BDE81040184700BF000000007800002085
:108050002CD30008740000200000000053B94AB976
:10806000002908BF00281CBF4FF0FF314FF0FF3040
:1080700001F0ECB8ADF1080C6DE904CE00F006F8A3
:10808000DDF804E0DDE9022304B070472DE9F04794
:108090008C460E460446089D002B50D18A42174656
:1080A0006CD9B2FA82FEBEF1000F0BD0CEF12004E3
:1080B00020FA04F401FA0EF644EA060C02FA0EF76E
:1080C00000FA0EF44FEA1749220CBCFBF9F01FFA34
:1080D00087F809FB10C642EA064600FB08F3B342E4
:1080E00009D9F61900F1FF3280F02281B34240F243
:1080F0001F8102383E44F61AA2B2B6FBF9F309FB1F
:10810000136642EA064403FB08F8A04509D9E419BE
:1081100003F1FF3280F00A81A04540F20781023B63
:108120003C44C8EB040443EA00400021002D62D027
:1081300024FA0EF400232C606B60BDE8F0878B42BC
:1081400007D9002D55D0002185E841000846BDE83B
:10815000F087B3FA83F1002940F09080B34202D354
:10816000824200F2F880841A66EB03060120B446CE
:10817000002D40D085E81010BDE8F08712B9012726
:10818000B7FBF2F7B7FA87FEBEF1000F35D1F31B4C
:108190004FEA17481FFA87FC0121B3FBF8F0220CC5
:1081A00008FB103642EA06460CFB00F3B34207D93F
:1081B000F61900F1FF3202D2B34200F2CE8010462F
:1081C000F61AA2B2B6FBF8F308FB136642EA0644BD
:1081D0000CFB03FCA44507D9E41903F1FF3202D2DA
:1081E000A44500F2B5801346CCEB040443EA0040FA
:1081F0009CE729462846BDE8F087CEF1200106FA23
:108200000EF307FA0EF720FA01F94FEA1748CE40AD
:1082100049EA0309B6FBF8FA4FEA194408FB1A6663
:108220001FFA87FC44EA06430AFB0CF29A4200FA62
:108230000EF40AD9DB190AF1FF3180F087809A42E7
:1082400040F28480AAF1020A3B449B1A1FFA89F982
:10825000B3FBF8F108FB113349EA034301FB0CF6C9
:108260009E4207D9DB1901F1FF326BD29E4269D9D8
:1082700002393B449B1B41EA0A418EE7C1F1200EC3
:1082800022FA0EF48B40234320FA0EF706FA01F48B
:108290004FEA134C26FA0EF63C43B6FBFCF9270CCA
:1082A0000CFB19661FFA83F847EA064609FB08F734
:1082B000B74202FA01F200FA01FA08D9F61809F1F8
:1082C000FF3041D2B7423FD9A9F102091E44F61B43
:1082D000A0B2B6FBFCF40CFB146640EA064704FBB4
:1082E00008F8B84507D9FF1804F1FF3028D2B8457F
:1082F00026D9023C1F4444EA0940C8EB0707A0FB0B
:1083000002894F4544464E4614D329D065B3BAEB93
:10831000040367EB060707FA0EFECB40CF404EEA98
:10832000030385E888000021BDE8F0871346F8E6DE
:108330001046E0E6B8EB020469EB03060138E5E716
:108340000446D8E7114695E78146C0E78A467CE7B0
:10835000023B3C4448E708460AE702383E442FE720
:10836000C245E7D33E46D1E72946BDE8F08700BFC6
:1083700003685A004CBF43F0004323F00043184405
:10838000704700BF61B32DE9F84F01F1FF3A904605
:108390000646D146002707EB090404EBD4746410A9
:1083A000E50071190846FFF7E3FFA245834605F192
:1083B0000800304409D0FFF7DBFFC34500F1FF3070
:1083C00005D8404509D2671CE5E7C34505D9A74252
:1083D00002D004F1FF39DEE700210846BDE8F88F3E
:1083E00008467047012807D0022807D0044B002810
:1083F0000CBF18460020704702487047024870477B
:10840000F18A0008F58A0008F98A000830B5244B83
:1084100083B004468D1E7BB301A92846AFF30080CC
:1084200020B301992A46FFF7ADFF0146F0B1FFF7EF
:108430009FFF4B68A064012B12D0002B01F10400B8
:1084400020DBFFF795FF0023E06423650368002B22
:108450001CDBFFF78DFF00232061184603B030BD01
:10846000002323610523184603B030BD0023236198
:108470000923184603B030BD0A490B48091AC91030
:108480000191CFE70123E0642365DFE7C3F30360D5
:10849000FFF7A8FF0028206114BF00230923DCE7B1
:1084A0000000000080D80008B0D700080368DA0791
:1084B00010B5044606D49B0700F1480009D500F02A
:1084C00059FC2368590709D51A070ED5DB0613D5C1
:1084D00010BD00F047FC23685907F5D404F1D00023
:1084E00000F050FC23681A07F0D404F5A87000F0DF
:1084F00051FC2368DB06EBD404F5E870BDE81040BE
:1085000000F08CBC03680BB11844704718467047E4
:1085100009207047704700BF70B504460D4608E05B
:108520002B6C63612A46236921460120984708285D
:1085300008D1296C2046FFF769FF06460028EFD0D6
:1085400004F086FD0728FBD13046296CFFF7E2FFD7
:10855000281D00F0FBFB00BF2DE9F0470C1D06466F
:1085600017460FCCADF5727D03AD0FC50FCC0FC50F
:108570000FCC0FC594E80F0002ACD6F80C80D6F8EB
:10858000189085E80F0000233046216C2360FFF728
:108590003DFF002F054614BF0A2709277DB1A36BB5
:1085A00047F010018DE81002324663640120334623
:1085B000C04778BB28460DF5727DBDE8F087236C77
:1085C00073614FF4F07221467AA804F07FFD33699D
:1085D0007AAA314638469847889B82468DE8100231
:1085E00039466364324633460120C04790B94FF4A0
:1085F000F0727AA9204604F069FDBAF1080F06D19D
:10860000216C3046FFF702FF09270546C6E7BAF19D
:10861000070F04D009200DF5727DBDE8F0872846CC
:10862000216CFFF777FF03A800F090FB406C7047C8
:10863000F0B5CB6B0B640E1D0F4604460FCEF9B0A0
:1086400001AD0FC50FCE0FC50FCE0FC596E80F00B9
:108650004FF0FF3685E80F00009606E023696A4672
:10866000214698470828054608D110992046FFF76B
:10867000CDFE0028F2D0092079B0F0BD6846FFF7A2
:1086800015FF062DF7D139462046FFF745FF00BFFD
:1086900030B4DD6BC160826119461D64002230BCBC
:1086A0005AE700BF70B5C66843690B6426B1012262
:1086B000FFF752FF04F0CCFC03690A4604460D465E
:1086C000014602209847072807D0082803D12946E9
:1086D0002046FFF721FF04F0BBFC3046296CFFF772
:1086E00019FF281D00F032FBC2681AB1CA6B0A6478
:1086F000002231E79CE700BF704700BF836813B1D9
:10870000014601201847704700B5042907D8DFE863
:1087100001F00309060909000BB90F2A05D9022047
:108720005DF804FB01205DF804FB00EB82021846B3
:108730005368019A13605DF804FB00BF10B584B064
:10874000002303AC0A4600941946FFF7DDFF0398A7
:1087500004B010BD00B5042907D8DFE801F0030913
:10876000060909000BB90F2A05D902205DF804FBA0
:1087700001205DF804FB019900EB82020968516059
:1087800018465DF804FB00BF10B584B004AC0023AC
:1087900044F8042D0A4600941946FFF7DBFF04B0A5
:1087A00010BD00BFF0B5D36B1364151D07460E4610
:1087B0000FCDADF50F7D17AC0FC40FCD0FC40FCD8E
:1087C0000FC495E80F004FF0FF3584E80F001695B1
:1087D00010E016A8FFF7D8FF314616A8B84716AA2A
:1087E000694678B9049B08209847052804460AD0B2
:1087F000092807D026996846FFF708FE6A460C212B
:108800000028E6D0092416A8FFF750FE20460DF5F3
:108810000F7DF0BD2DE9F04F0D46C96C8BB00C1DDE
:10882000096807919146089400F0030B1E46002B3F
:1088300064D10902032307918DF825608DF8243057
:108840002B6DBBF1020F08BFAC6B13F0010343D1DA
:1088500000F00800C2B2039201932768002F3DD0B8
:10886000022E47D02788B4F802800434AB6C28F07D
:10887000010A0F2148469A44FFF760FF824537D826
:1088800027F001039A4450452CBF002001204FEAF5
:10889000480808F0020807F0010748EA0708B8F19D
:1088A000010F41D038D3B8F1020F1DD1236823F056
:1088B00000420292BBF1000F79D130B10399002937
:1088C00000F08180002A00F0A880002B79DB029B59
:1088D000013304EB8304C0E700230193022E40DD43
:1088E000FFF716FE002842D009200BB0BDE8F08F3C
:1088F0000020CCE7D4F804800834B7E7022B9FDCD3
:108900000B0CDAB209048DF82530022304EB820443
:1089100007918DF8243093E7BBF1000F02D00028B7
:1089200040F0B080043498E7BBF1000F26D1B0B11D
:1089300094E80C00991C4FEAD272D5D005F1580189
:108940000133069100F09480201DFFF7DBFD06AB9C
:108950000146284604F068F8002840F0B880083442
:108960007BE707A9484600F0F3FA0028BCD1019B39
:10897000002B5CD108200BB0BDE8F08F0D214846DC
:108980002F6AFFF7DBFE8742E9D1AB6A9C42E6D152
:108990002046FFF7EDFC0F2102464846FFF7F4FEA4
:1089A00048462A460021FFF7EFFE07209DE70D21EC
:1089B00048462F6AFFF7C2FE874248D02368002B43
:1089C00085DA043483E7029B3BB305F15803271D86
:1089D000CDF810B0DDF80C80DDF808A00596A346B0
:1089E0001C4602E0B245B04616D038460694FFF762
:1089F00089FD06AB01460022284604F015F808F16F
:108A0000010604370028EDD0029B059E43455C46D5
:108A1000DDF810B0D2D100E05C4648460D21FFF7EA
:108A20008DFE069B2862AC626B6206205DE70F211B
:108A30004846FFF783FE0E2102464846FFF7A4FE94
:108A400048462A4A0F21FFF79FFE07204DE7AB6AF1
:108A50009C42B3D104220027A3180299A962EF62B5
:108A60002A636B632368BB421FDB012301932EE75C
:108A700048460D21FFF762FE2862069B6B62AC62DE
:108A8000062032E72046FFF773FC04340646AC6349
:108A9000284604F027F800283FF426AF484632461F
:108AA0000F21FFF771FE07201FE70846013004EB96
:108AB0008000FFF75DFC0F2102464846FFF764FE89
:108AC00048462A463946FFF75FFE07200DE707466E
:108AD0000D214846FFF732FE022F2862CDD12B46EA
:108AE000069A43F82C2F6B62C9E700BF97CD0008A8
:108AF00000238FE601238DE602238BE6F0B50446C2
:108B0000C5B004290DD8DFE801F057030C310F0080
:108B1000012B4FEA124695B266D17219102A40F223
:108B20009F80022045B0F0BD002BFAD1102AF8D862
:108B30002368D80600F1C98022AE3046019200F0C9
:108B400077F9A06B019A0023012505FA03F1114280
:108B500003D0016846F8231004300133042BF4D10C
:108B6000A063304600F05AF90020DBE7032BD8D190
:108B7000150C97B2EB19102BD3D823681E0700F100
:108B8000B88022AE30467F0000F026F906EBC50221
:108B90007B1EA56B57B1043A294651F8040B42F8E5
:108BA000040F013B581CF8D105EB87053046A5633F
:108BB00000F0F0F80020B5E7002BB2D1A56B97B21A
:108BC000201D012606FA03F1394203F1010302D008
:108BD000296801600435102B00F10400F2D112F471
:108BE00000503BD1A5639DE7052B9AD17719202F23
:108BF00097D80F2E65D92F46002D48D12A46002739
:108C0000002AA06B71DD00EBC202014644A800EB14
:108C1000C6008C3851F8045B40F8045F9142F9D1EA
:108C2000084697B1102E324644A938BF102201EBF6
:108C3000C202A2F5C4727900043A00EB810150F837
:108C4000045B42F8045F8142F9D1012B47D00F2E1B
:108C5000A16332D917B102A800F094F8002061E7AF
:108C60000F2E3FF65EAF00272268D1070DD522F008
:108C70000101052B21600193204652D022F003020E
:108C800040F8482B00F072F8019B002F51D0226869
:108C9000510736D4012B3ED00F2E06D822A80193BF
:108CA00000F06CF8019B002FA8D002A8019300F0FF
:108CB0006DF8019BC6F11002A2E722A800F05AF855
:108CC000C8E7102FCFD9103FCEE723F01003236061
:108CD00004F5E870019200F0ABF8019A2CE704313A
:108CE000A16322A800F03EF8B8E7002F9AD1014610
:108CF000ABE723F00803236004F5A87000F06CF8DC
:108D00003FE7204622F0040240F8D02B019300F008
:108D10003DF8019BBEE722A8019300F027F8019BD4
:108D2000C8E741F0020140F8481B00F027F8019B1A
:108D3000ABE7012B03D00F2E3FF660AFAEE722A8C2
:108D4000019300F013F8019B58E700BF00F13401D4
:108D500091E838009C46A6464CF8045D90E8FF0F69
:108D6000E54600BD90EC210B704700BF80EC210B65
:108D7000704700BF90EC200B704700BF80EC200BC9
:108D8000704700BFD0EC200B704700BFC0EC200B39
:108D9000704700BFF0EC0201F0EC0211F0EC022190
:108DA000F0EC0231F0EC0241F0EC0251F0EC026127
:108DB000F0EC0271F0EC0281F0EC0291F0EC02A117
:108DC000F0EC02B1F0EC02C1F0EC02D1F0EC02E107
:108DD000F0EC02F1704700BFE0EC0201E0EC0211A0
:108DE000E0EC0221E0EC0231E0EC0241E0EC025167
:108DF000E0EC0261E0EC0271E0EC0281E0EC029157
:108E0000E0EC02A1E0EC02B1E0EC02C1E0EC02D146
:108E1000E0EC02E1E0EC02F1704700BFB0FC018140
:108E2000B0FC0191B0FC01A1B0FC01B1704700BFE2
:108E3000A0FC0181A0FC0191A0FC01A1A0FC01B15A
:108E4000704700BFEC4600B52DE900502DE9FF1F2B
:108E50004FF000032DE90C0001A9FFF7E9FBDDF855
:108E600040E012B0704700BFEC4600B52DE900505D
:108E70002DE9FF1F4FF000032DE90C0001A9FFF7BA
:108E800011FCDDF840E012B0704700BFEC4600B5C1
:108E90002DE900502DE9FF1F4FF000032DE90C00D4
:108EA00001A9FFF721FCDDF840E012B0704700BFD8
:108EB000EC4600B52DE900502DE9FF1F4FF00003EF
:108EC0002DE90C0001ABFFF7E3FBDDF840E012B049
:108ED000704700BFEC4600B52DE900502DE9FF1F9B
:108EE0004FF000032DE90C0001AAFFF75BFCDDF851
:108EF00040E012B0704700BF037A1BB9437A43B910
:108F0000B02070475A1E036802721A020260180EDF
:108F100070474268013B10B4437213680321141D6B
:108F200001721A024460026010BC180E704700BF44
:108F300000B585B003AA0023009219460C22FFF762
:108F4000E3FB039805B05DF804FB00BFF0E700BF4A
:108F50002DE9F043064685B00D464FF0000828463F
:108F6000FFF7CAFFB028044600F0B48020F07F036A
:108F700013F0FF0320D000F0F003802B7AD0902B69
:108F800035D0A02B48D0B02B5CD0C02B00F089800E
:108F900000F0F803D02B0BD100F00702013242F4AD
:108FA0000022052301213046FFF7A8FD0028D6D076
:108FB000092005B0BDE8F0830DF10C0919468700C2
:108FC000CDF800900D223046FFF79EFBFFB2039BC9
:108FD000CDF80090043760064CBFDF1BFF1800235C
:108FE00019460D2230460397FFF7B4FBB7E700F0B0
:108FF0000D030D2BDCD003AF002300F00F02194648
:1090000000973046FFF780FB0023009719460D229A
:109010003046FFF79FFBA2E7C2434FF47F6302F0A5
:10902000070243FA02F2010702EA03024FF00003CB
:1090300048BF42F4804219463046FFF75FFD0028E2
:10904000B6D18CE7B1284AD0B22853D0B32800F06B
:10905000818000F0FC03B42BAAD000F0070201329B
:10906000012342F4002219463046FFF747FD00284D
:109070009ED174E72846FFF73FFF24022043B0F556
:10908000004F95D004010023A2B219463046FFF7E5
:1090900035FD00288CD114F4004F18BF4FF00108A3
:1090A0005DE7C62862D0C7286CD000F0F803C02B5B
:1090B0007BD0C82800F09180C9287FF479AF28467A
:1090C000FFF71AFF020300F00F0002F470220130D4
:1090D000024366E7B8F1000F6ED0002069E728462A
:1090E000FFF70AFF024600283FF462AF10F0F003DA
:1090F000B9D05DE700230DF10C090D221946CDF81A
:1091000000903046FFF700FB2846FFF7F5FE020609
:109110004FF002040CD5039B00F07F00A0400344F5
:1091200028460393FFF7E8FE030604F10704F2D490
:10913000039BCDF8009000F07F0000FA04F203F5E5
:1091400001740023144419460D2230460394FFF79E
:1091500001FB04E72846FFF7CFFE010300F00F00F4
:1091600001F47021421C01230A437CE72846FFF7E3
:10917000C3FE010300F00F0001F47021421C032321
:109180000A4370E72846FFF7B7FE024600283FF47F
:109190000FAF10F0F0037FF40BAF04213046FFF760
:1091A000ADFC00287FF404AFD9E600F00F020132D5
:1091B000032342F4202256E703AC43460E224146E5
:1091C00000943046FFF7A0FA0094304643460F2241
:1091D0004146FFF7BFFA4046EBE62846FFF78CFE14
:1091E00000F0F00200F00F031032013343EA0232C4
:1091F000D7E600BF10B5C36C84B05A6803208DF861
:109200000C00DC798DF80D4012020833084601A9E4
:1092100001920293FFF79CFE04B010BD08B5FFF762
:1092200095FE806C08BD00BF08B5FFF78FFEC36CCC
:10923000D87903EB8000083008BD00BF08B503F003
:1092400007FF00BF08B5FFF7F9FF00BF704700BF79
:1092500010F8012B11F8013B012A28BF9A42F7D0E0
:10926000D01A7047034613F8012B002AFBD1181AB5
:109270000138704780B500AF0E4A0E4B1B6843F4AF
:10928000007313600B4A0B4B1B6843F4806313603D
:10929000084A084B1B6843F480731360032000F0F6
:1092A00007F9002001F06AFF00F012FD00231846C4
:1092B00080BD00BF003C024080B400AF054B1B786E
:1092C0001A46054B1B681344034A136000BFBD4692
:1092D00080BC7047000000209000002080B400AFE8
:1092E000024B1B681846BD4680BC704790000020AA
:1092F00080B485B000AF78607B6803F00703FB6043
:109300000C4BDB68BB60BA684FF6FF031340BB60D1
:10931000FB681A02BB68134343F0BF6343F4003396
:10932000BB60044ABB68D36000BF1437BD4680BC35
:10933000704700BF00ED00E080B400AF044BDB6875
:1093400003F4E0631B0A1846BD4680BC704700BFAB
:1093500000ED00E080B483B000AF0346FB71084924
:1093600097F907305B09FA7902F01F02012000FA31
:1093700002F241F8232000BF0C37BD4680BC704785
:1093800000E100E080B483B000AF0346FB710949FF
:1093900097F907305B09FA7902F01F02012000FA01
:1093A00002F2203341F8232000BF0C37BD4680BCB9
:1093B000704700BF00E100E080B483B000AF034617
:1093C0003960FB7197F90730002B0BDA0D49FB79F7
:1093D00003F00F03043B3A68D2B21201D2B20B443D
:1093E0001A7609E0084997F907303A68D2B21201B3
:1093F000D2B20B4483F8002300BF0C37BD4680BCBB
:10940000704700BF00ED00E000E100E080B489B0EB
:1094100000AFF860B9607A60FB6803F00703FB6196
:10942000FB69C3F10703042B28BF0423BB61FB695D
:109430000433062B02D9FB69033B00E000237B6168
:109440000122BB6902FA03F35A1EBB681A407B690A
:109450009A4001217B6901FA03F3591E7B680B4096
:10946000134318462437BD4680BC704780B582B090
:1094700000AF78607B68013BB3F1807F01D30123AB
:109480000FE00A4A7B68013B53600F214FF0FF3029
:10949000FFF792FF054B00229A60044B07221A60E7
:1094A000002318460837BD4680BD00BF10E000E02D
:1094B00080B582B000AF78607B68072B0FD07B68E7
:1094C000062B0CD07B68052B09D07B68042B06D0BB
:1094D0007B68032B03D0A221044802F059FF78686F
:1094E000FFF706FF00BF0837BD4680BD44D3000824
:1094F00080B586B000AF0346B9607A60FB73002385
:109500007B617B680F2B03D9BA210E4802F040FF24
:10951000BB680F2B03D9BB210A4802F039FFFFF7C4
:109520000BFF78617A68B9687869FFF76FFF0246C8
:1095300097F90F3011461846FFF73EFF00BF183766
:10954000BD4680BD44D3000880B582B000AF03465D
:10955000FB7197F90730002B03DACE21054802F0A2
:1095600017FF97F907301846FFF7F4FE00BF0837DA
:10957000BD4680BD44D3000880B582B000AF03462D
:10958000FB7197F90730002B03DADE21054802F062
:10959000FFFE97F907301846FFF7F4FE00BF0837C3
:1095A000BD4680BD44D3000880B582B000AF78606E
:1095B0007868FFF75BFF034618460837BD4680BD55
:1095C00080B582B000AF78607B68042B07D07B68E1
:1095D000002B04D040F2D9110B4802F0D9FE7B6871
:1095E000042B06D1094A094B1B6843F0040313609E
:1095F00005E0064A054B1B6823F00403136000BF17
:109600000837BD4680BD00BF44D3000810E000E02D
:1096100080B588B000AF7860396000237B6100239B
:109620003B610023BB617B683F4A93421FD07B684C
:109630003E4A93421BD07B683D4A934217D07B68D9
:109640003C4A934213D07B683B4A93420FD07B68DD
:109650003A4A93420BD07B68394A934207D07B68E1
:10966000384A934203D0C321374802F091FE3B6849
:109670001B689BB2002B05D03B681B681B0C1B04AE
:10968000002B03D0C421304802F082FE3B685B68A7
:10969000002B35D03B685B68012B31D03B685B68A1
:1096A000112B2DD03B685B68022B29D03B685B688F
:1096B000122B25D03B685B68244A934220D03B683C
:1096C0005B68234A93421BD03B685B68214A934204
:1096D00016D03B685B68204A934211D03B685B68B8
:1096E0001E4A93420CD03B685B681D4A934207D0E8
:1096F0003B685B68032B03D0C521134802F048FE8A
:109700003B689B68002B0BD03B689B68012B07D004
:109710003B689B68022B03D0C6210B4802F038FE41
:109720000023FB6195E200BF0000024000040240FC
:1097300000080240000C02400010024000140240E9
:1097400000180240001C0240B4D3000800001110B1
:109750000000211000003110000012100000221043
:10976000000032100122FB6902FA03F37B613B68BF
:109770001A687B6913403B613A697B699A4240F001
:1097800065823B685B68022B04D03B685B68122BE8
:1097900040F00C813B681B69002B00F0E3803B68C4
:1097A0001B69092B00F0DE803B681B69002B00F071
:1097B000D9803B681B69002B00F0D4803B681B6993
:1097C000002B00F0CF803B681B69002B00F0CA80A3
:1097D0003B681B69012B00F0C5803B681B69012BAE
:1097E00000F0C0803B681B69022B00F0BB803B6827
:1097F0001B69022B00F0B6803B681B69022B00F04E
:10980000B1803B681B69032B00F0AC803B681B698F
:10981000042B00F0A7803B681B69042B00F0A2809A
:109820003B681B69042B00F09D803B681B69052B7E
:1098300000F098803B681B69052B00F093803B6823
:109840001B69092B00F08E803B681B69062B00F01A
:1098500089803B681B69092B00F084803B681B6989
:10986000072B7FD03B681B69072B7BD03B681B69AC
:10987000072B77D03B681B69082B73D03B681B69AB
:10988000082B6FD03B681B69082B6BD03B681B69AA
:10989000092B67D03B681B69092B63D03B681B69A8
:1098A0000A2B5FD03B681B690A2B5BD03B681B69A6
:1098B0000B2B57D03B681B690C2B53D03B681B69A3
:1098C0000C2B4FD03B681B690D2B4BD03B681B69A1
:1098D0000F2B47D03B681B69052B43D03B681B69A6
:1098E0000C2B3FD03B681B69062B3BD03B681B69A8
:1098F000032B37D03B681B69042B33D03B681B69B3
:10990000052B2FD03B681B69062B2BD03B681B69AE
:10991000062B27D03B681B69072B23D03B681B69AC
:10992000072B1FD03B681B69072B1BD03B681B69AB
:10993000072B17D03B681B69082B13D03B681B69AA
:10994000082B0FD03B681B69092B0BD03B681B69A8
:109950000A2B07D03B681B690A2B03D0D7217F480D
:1099600002F016FDFB69DA087B68083253F82230F2
:10997000BB61FB6903F007039B000F2202FA03F3AC
:10998000DB43BA691340BB613B681A69FB6903F0AA
:1099900007039B0002FA03F3BA691343BB61FB6937
:1099A000DA087B680832B96943F822107B681B68C3
:1099B000BB61FB695B00032202FA03F3DB43BA6974
:1099C0001340BB613B685B6803F00302FB695B000B
:1099D00002FA03F3BA691343BB617B68BA691A6080
:1099E0003B685B68012B0BD03B685B68022B07D0A0
:1099F0003B685B68112B03D03B685B68122B44D13A
:109A00003B68DB68002B0FD03B68DB68012B0BD079
:109A10003B68DB68022B07D03B68DB68032B03D075
:109A2000EA214E4802F0B4FC7B689B68BB61FB698D
:109A30005B00032202FA03F3DB43BA691340BB6104
:109A40003B68DA68FB695B0002FA03F3BA69134307
:109A5000BB617B68BA699A607B685B68BB61012205
:109A6000FB6902FA03F3DB43BA691340BB613B684D
:109A70005B681B0903F00102FB6902FA03F3BA6990
:109A80001343BB617B68BA695A607B68DB68BB6162
:109A9000FB695B00032202FA03F3DB43BA6913405C
:109AA000BB613B689A68FB695B0002FA03F3BA6921
:109AB0001343BB617B68BA69DA603B685B6803F09B
:109AC0008053002B00F0C2800023FB60244A244B0B
:109AD0005B6C43F480435364214B5B6C03F4804321
:109AE000FB60FB681F4AFB699B08023352F8233076
:109AF000BB61FB6903F003039B000F2202FA03F32F
:109B0000DB43BA691340BB617B68174A934239D083
:109B10007B68164A93421FD07B68154A934219D03E
:109B20007B68144A934213D07B68134A93420DD04A
:109B30007B68124A934207D07B68114A934201D155
:109B4000062320E007231EE005231CE004231AE07F
:109B5000032318E0022316E0012314E0B4D3000825
:109B6000003802400038014000000240000402407A
:109B700000080240000C02400010024000140240A5
:109B8000001802400023FA6902F003029200934099
:109B9000BA691343BB613349FB699B080233BA6955
:109BA00041F82320304B1B68BB613B69DB43BA693A
:109BB0001340BB613B685B6803F48033002B03D028
:109BC000BA693B691343BB61274ABB691360264BE3
:109BD0005B68BB613B69DB43BA691340BB613B68AF
:109BE0005B6803F40033002B03D0BA693B6913436D
:109BF000BB611D4ABB6953601B4B9B68BB613B69E2
:109C0000DB43BA691340BB613B685B6803F48013B4
:109C1000002B03D0BA693B691343BB61124ABB698D
:109C20009360114BDB68BB613B69DB43BA6913404E
:109C3000BB613B685B6803F40013002B03D0BA6977
:109C40003B691343BB61084ABB69D360FB690133BD
:109C5000FB61FB690F2B7FF685AD00BF2037BD464A
:109C600080BD00BF00380140003C014080B582B09B
:109C700000AF78600B467B8013467B707B88002B9F
:109C800004D07B881B0C1B04002B04D040F2AF11C6
:109C90000E4802F07DFB7B78002B07D07B78012BF0
:109CA00004D04FF4D871094802F072FB7B78002B86
:109CB00003D07A887B689A6103E07B881A047B680A
:109CC0009A6100BF0837BD4680BD00BFB4D300080D
:109CD00080B400AF00BFBD4680BC704780B582B085
:109CE00000AF00237B6000233B601F4A1E4B1B6CB0
:109CF00043F0805313641C4B1B6C03F080533B6098
:109D00003B681A4B01221A60FFF7E8FA786009E015
:109D1000FFF7E4FA02467B68D31AB3F57A7F01D9DC
:109D200003231DE0124B5B6803F48033002BEFD05C
:109D3000104B01221A60FFF7D1FA786009E0FFF7B3
:109D4000CDFA02467B68D31AB3F57A7F01D9032393
:109D500006E0074B5B6803F40033002BEFD00023D1
:109D600018460837BD4680BD0038024040000E420C
:109D70000070004044000E4280B584B000AF7860AF
:109D800039607B68002B01D101238AE17B681B6865
:109D9000002B03D07B681B680F2B04D94FF4147180
:109DA000874802F0F5FA3B68002B31D03B68012B65
:109DB0002ED03B68022B2BD03B68032B28D03B686E
:109DC000042B25D03B68052B22D03B68062B1FD0E7
:109DD0003B68072B1CD03B68082B19D03B68092B2C
:109DE00016D03B680A2B13D03B680B2B10D03B6876
:109DF0000C2B0DD03B680D2B0AD03B680E2B07D0E7
:109E00003B680F2B04D040F251216D4802F0C0FA9C
:109E10006C4B1B6803F00F023B689A420CD2694BF3
:109E20003A68D2B21A70674B1B6803F00F023B68A6
:109E30009A4201D0012334E17B681B6803F00203DE
:109E4000002B49D07B681B6803F00403002B05D06E
:109E50005D4A5D4B9B6843F4E05393607B681B68ED
:109E600003F00803002B05D0574A574B9B6843F477
:109E7000604393607B689B68002B24D07B689B6861
:109E8000802B20D07B689B68902B1CD07B689B68C4
:109E9000A02B18D07B689B68B02B14D07B689B6884
:109EA000C02B10D07B689B68D02B0CD07B689B6844
:109EB000E02B08D07B689B68F02B04D04FF41D7119
:109EC0003F4802F065FA40493F4B9B6823F0F0029F
:109ED0007B689B6813438B607B681B6803F00103FE
:109EE000002B59D07B685B68002B10D07B685B68C7
:109EF000012B0CD07B685B68022B08D07B685B6809
:109F0000032B04D040F27B212D4802F041FA7B68FC
:109F10005B68012B07D12C4B1B6803F40033002B2B
:109F200019D10123BDE07B685B68022B03D07B68FD
:109F30005B68032B07D1244B1B6803F00073002BD5
:109F400009D10123ADE0204B1B6803F00203002B75
:109F500001D10123A5E01C491B4B9B6823F00302A0
:109F60007B685B6813438B60FFF7B8F9F8600AE021
:109F7000FFF7B4F90246FB68D31A41F288329342E4
:109F800001D903238DE0104B9B6803F00C027B6822
:109F90005B689B009A42EBD10A4B1B6803F00F02EF
:109FA0003B689A4212D9074B3A68D2B21A70054BF5
:109FB0001B6803F00F023B689A4207D0012370E050
:109FC00024D40008003C0240003802407B681B6833
:109FD00003F00403002B25D07B68DB68002B18D02E
:109FE0007B68DB68B3F5805F13D07B68DB68B3F513
:109FF000A05F0ED07B68DB68B3F5C05F09D07B68DB
:10A00000DB68B3F5E05F04D040F2B921274802F0E5
:10A01000BFF92749264B9B6823F4E0527B68DB6835
:10A0200013438B607B681B6803F00803002B26D06A
:10A030007B681B69002B18D07B681B69B3F5805FB8
:10A0400013D07B681B69B3F5A05F0ED07B681B69DA
:10A05000B3F5C05F09D07B681B69B3F5E05F04D03E
:10A060004FF43071114802F093F91149104B9B687D
:10A0700023F460427B681B69DB0013438B6000F0B4
:10A080007FF801460A4B9B6803F0F0031B09094A5D
:10A09000D35C21FA03F3084A1360002001F06EF844
:10A0A000002318461037BD4680BD00BF24D40008E9
:10A0B00000380240ECD500080400002080B400AF56
:10A0C000024B1B681846BD4680BC70470400002048
:10A0D00080B500AFFFF7F2FF0146054B9B6803F424
:10A0E000E0539B0A034AD35C21FA03F3184680BD70
:10A0F00000380240FCD5000880B500AFFFF7DEFF56
:10A100000146054B9B6803F460435B0B034AD35C39
:10A1100021FA03F3184680BD00380240FCD5000840
:10A1200080B483B000AF786039607B680F221A601A
:10A13000114B9B6803F003027B685A600E4B9B68CF
:10A1400003F0F0027B689A600B4B9B6803F4E052CB
:10A150007B68DA60084B9B6803F46043DA087B682D
:10A160001A61064B1B6803F00F023B681A6000BFC0
:10A170000C37BD4680BC704700380240003C0240AE
:10A180002DE9F04FA1B000AF00237B670023FB67F0
:10A1900000233B670023FB660023BB679C4B9B6847
:10A1A00003F00C030C2B00F28E8101A252F823F075
:10A1B000E5A10008C7A40008C7A40008C7A40008B8
:10A1C000EBA10008C7A40008C7A40008C7A40008A2
:10A1D000F1A10008C7A40008C7A40008C7A400088C
:10A1E0005FA300088B4BBB6770E18B4BBB676DE1D6
:10A1F000874B5B6803F03F037B67854B5B6803F429
:10A200008003002B50D0824B5A6847F6C07313402E
:10A210009B0919464FF000020B461446E000786691
:10A22000786E40EA53707866DB003B66D7E91834F5
:10A230006001F865F86D40EAD360F8655801B865CB
:10A24000D7E91656ED1A66EB040633469B017B658B
:10A250007B6D284643EA90637B652B469B013B65FB
:10A26000D7E914345D1B64EB06066B1846EB020459
:10A27000184621460B465B02FB64FB6C024643EA30
:10A28000D253FB6403465B02BB64D7E91234184621
:10A2900021467B6F4FF000041A462346FDF7DEFE91
:10A2A00003460C46FB674CE0594B5A6847F6C073AF
:10A2B00013409B0919464FF000020B461446E0007C
:10A2C0007864786C40EA53707864DB003B64D7E9CB
:10A2D00010346001F863F86B40EAD360F86358010A
:10A2E000B863D7E90E56ED1A66EB040633464FEA1B
:10A2F000831B2B464BEA936B2B464FEA831ABAEB30
:10A3000005056BEB0606AA46B3461AEB010A4BEBB2
:10A31000020B4FEA8B237B637B6B43EA9A537B638D
:10A320004FEA8A233B63D7E90CAB504659467B6F13
:10A330004FF000041A462346FDF790FE03460C46F4
:10A34000FB67334B5B6803F440331B0C01335B004A
:10A350003B67FA6F3B6FB2FBF3F3BB67B6E02C4B86
:10A360005B6803F03F037B67294B5B6803F4800362
:10A37000002B53D0264B5A6847F6C07313409B09F5
:10A3800019464FF000020B461446E000F862F86AE6
:10A3900040EA5370F862DB00BB62D7E90A3460011F
:10A3A0007862786A40EAD360786258013862D7E907
:10A3B0000856ED1A66EB040633464FEA83192B461E
:10A3C00049EA93692B464FEA8318B8EB050569EB18
:10A3D0000606A846B14618EB010849EB02094FEA08
:10A3E0004923FB61FB6943EAD853FB614FEA4823E9
:10A3F000BB61D7E90689404649467B6F4FF00004B0
:10A400001A462346FDF72AFE03460C46FB674EE03C
:10A41000003802400024F40000127A002E4B5A68E3
:10A4200047F6C07313409B0919464FF000020B46D4
:10A430001446E0007861786940EA53707861DB0087
:10A440003B61D7E904346001F860F86840EAD36002
:10A45000F8605801B860D7E90289B8EB030869EBE6
:10A4600004094B469E01434646EA936643469D01D6
:10A47000B5EB080866EB090945464E466D1846EBF4
:10A480000206B3027B607B6843EA95537B60AB02B4
:10A490003B60D7E90056284631467B6F4FF00004F9
:10A4A0001A462346FDF7DAFD03460C46FB670A4BC6
:10A4B0005B6803F0E0431B0FFB66FA6FFB6EB2FBB9
:10A4C000F3F3BB6702E0054BBB6700BFBB6F1846E9
:10A4D0008437BD46BDE8F08F003802400024F40008
:10A4E00080B586B000AF786000233B617B681B6855
:10A4F0000F2B04D94FF45161A44801F049FF7B6848
:10A500001B6803F00103002B00F094807B685B68FC
:10A51000002B0ED07B685B68B3F5803F09D07B6869
:10A520005B68B3F5A02F04D040F61551974801F0B1
:10A530002FFF974B9B6803F00C03042B17D0944B11
:10A540009B6803F00C03082B05D1914B5B6803F467
:10A550008003002B0BD18E4B9B6803F00C030C2B5C
:10A5600011D18B4B5B6803F48003002B0BD0884B1D
:10A570001B6803F40033002B5BD07B685B68002B07
:10A5800057D10123BFE27B685B68B3F5803F06D1FA
:10A590007F4A7F4B1B6843F4803313601DE07B6868
:10A5A0005B68B3F5A02F0CD1794A794B1B6843F453
:10A5B00080231360764A764B1B6843F48033136024
:10A5C0000BE0734A724B1B6823F480331360704AAC
:10A5D0006F4B1B6823F4802313607B685B68002B40
:10A5E00013D0FEF77BFE386108E0FEF777FE0246E7
:10A5F0003B69D31A642B01D9032384E2644B1B68A3
:10A6000003F40033002BF0D014E0FEF767FE38614E
:10A6100008E0FEF763FE02463B69D31A642B01D9BA
:10A62000032370E25A4B1B6803F40033002BF0D174
:10A6300000E000BF7B681B6803F00203002B00F002
:10A6400086807B68DB68002B08D07B68DB68012B89
:10A6500004D040F64D514D4801F09AFE7B681B69CD
:10A660001F2B04D940F64E51484801F091FE484B4B
:10A670009B6803F00C03002B17D0454B9B6803F03D
:10A680000C03082B05D1424B5B6803F48003002BBD
:10A690000BD03F4B9B6803F00C030C2B1CD13C4BA5
:10A6A0005B6803F48003002B16D1394B1B6803F061
:10A6B0000203002B05D07B68DB68012B01D001234E
:10A6C00021E23349324B1B6823F0F8027B681B6997
:10A6D000DB0013430B603AE07B68DB68002B20D083
:10A6E0002C4B01221A60FEF7F9FD386108E0FEF7F5
:10A6F000F5FD02463B69D31A022B01D9032302E27E
:10A70000234B1B6803F00203002BF0D02049204BA1
:10A710001B6823F0F8027B681B69DB0013430B60A6
:10A7200015E01C4B00221A60FEF7D8FD386108E0E6
:10A73000FEF7D4FD02463B69D31A022B01D903234D
:10A74000E1E1134B1B6803F00203002BF0D17B689F
:10A750001B6803F00803002B46D07B685B69002B65
:10A7600008D07B685B69012B04D040F69451074800
:10A7700001F00EFE7B685B69002B1FD0064B0122A7
:10A780001A60FEF7ABFD386111E000BF94D40008F9
:10A790000038024000004742800E4742FEF79EFD0F
:10A7A00002463B69D31A022B01D90323ABE1A44B28
:10A7B0005B6F03F00203002BF0D015E0A14B0022E9
:10A7C0001A60FEF78BFD386108E0FEF787FD024650
:10A7D0003B69D31A022B01D9032394E1984B5B6F99
:10A7E00003F00203002BF0D17B681B6803F0040325
:10A7F000002B00F0A8800023FB757B689B68002B72
:10A800000CD07B689B68012B08D07B689B68052B6C
:10A8100004D04FF45C618C4801F0BAFD884B1B6C8E
:10A8200003F08053002B0FD10023FB60844A844B3C
:10A830001B6C43F080531364814B1B6C03F08053FB
:10A84000FB60FB680123FB75804B1B6803F480737E
:10A85000002B18D17D4A7D4B1B6843F48073136035
:10A86000FEF73CFD386108E0FEF738FD02463B6923
:10A87000D31A022B01D9032345E1744B1B6803F45F
:10A880008073002BF0D07B689B68012B06D16C4A4B
:10A890006B4B1B6F43F0010313671CE07B689B68E5
:10A8A000052B0CD1664A664B1B6F43F004031367FC
:10A8B000634A634B1B6F43F0010313670BE0604A6D
:10A8C0005F4B1B6F23F0010313675D4A5C4B1B6FEB
:10A8D00023F0040313677B689B68002B15D0FEF7F9
:10A8E000FDFC38610AE0FEF7F9FC02463B69D31A29
:10A8F00041F28832934201D9032304E1504B1B6F8C
:10A9000003F00203002BEED014E0FEF7E7FC386101
:10A910000AE0FEF7E3FC02463B69D31A41F28832B3
:10A92000934201D90323EEE0454B1B6F03F0020372
:10A93000002BEED1FB7D012B05D1414A404B1B6C16
:10A9400023F0805313647B689B69002B0CD07B68D9
:10A950009B69012B08D07B689B69022B04D040F6D1
:10A960000361394801F014FD7B689B69002B00F0FE
:10A97000C980334B9B6803F00C03082B00F0C080A8
:10A980007B689B69022B40F0A4807B68DB69002B0D
:10A9900009D07B68DB69B3F5800F04D040F60C6109
:10A9A000294801F0F5FC7B681B6A3F2B04D940F66F
:10A9B0000D61254801F0ECFC7B685B6A312B04D902
:10A9C0007B685B6AB3F5D87F04D940F60E611E48F8
:10A9D00001F0DEFC7B689B6A022B10D07B689B6ACF
:10A9E000042B0CD07B689B6A062B08D07B689B6A83
:10A9F000082B04D040F60F61134801F0C9FC7B68B6
:10AA0000DB6A012B03D97B68DB6A0F2B04D94FF477
:10AA100061610D4801F0BCFC7B681B6B012B03D905
:10AA20007B681B6B072B04D940F61161064801F0C7
:10AA3000AFFC074B00221A60FEF750FC386112E0B1
:10AA400000380240800E474294D400080070004055
:10AA500060004742FEF742FC02463B69D31A022BD4
:10AA600001D903234FE02A4B1B6803F00073002B2E
:10AA7000F0D127497B68DA697B681B6A1A437B68D7
:10AA80005B6A9B011A437B689B6A5B08013B1B0462
:10AA90001A437B68DB6A1B061A437B681B6B1B0728
:10AAA00013434B601B4B01221A60FEF717FC386101
:10AAB00008E0FEF713FC02463B69D31A022B01D9CA
:10AAC000032320E0124B1B6803F00073002BF0D02F
:10AAD00018E0104B00221A60FEF700FC386108E015
:10AAE000FEF7FCFB02463B69D31A022B01D9032374
:10AAF00009E0074B1B6803F00073002BF0D101E065
:10AB0000012300E0002318461837BD4680BD00BF72
:10AB1000003802406000474280B582B000AF7860E4
:10AB20007B68002B01D1012391E07B681B684A4AB6
:10AB3000934244D07B681B68B3F1804F3FD07B6861
:10AB40001B68464A93423AD07B681B68444A93424A
:10AB500035D07B681B68434A934230D07B681B68C2
:10AB6000414A93422BD07B681B68404A934226D0CF
:10AB70007B681B683E4A934221D07B681B683D4A34
:10AB800093421CD07B681B683B4A934217D07B687A
:10AB90001B683A4A934212D07B681B68384A93423A
:10ABA0000DD07B681B68374A934208D07B681B68CE
:10ABB000354A934203D0D721344801F0E9FB7B6842
:10ABC0009B68002B13D07B689B68102B0FD07B6891
:10ABD0009B68202B0BD07B689B68402B07D07B6841
:10ABE0009B68602B03D0D821284801F0D1FB7B68FB
:10ABF0001B69002B0DD07B681B69B3F5807F08D0E3
:10AC00007B681B69B3F5007F03D0D9211F4801F091
:10AC1000BFFB7B6893F83930DBB2002B06D17B6831
:10AC2000002283F83820786800F032F87B6802222E
:10AC300083F839207B681A687B680433194610460C
:10AC400000F0E0F97B68012283F8392000231846E0
:10AC50000837BD4680BD00BF000001400004004031
:10AC600000080040000C00400010004000140040AC
:10AC70000004014000400140004401400048014000
:10AC800000180040001C00400020004004D50008CF
:10AC900080B483B000AF786000BF0C37BD4680BC85
:10ACA000704700BF80B582B000AF78607B681B68DA
:10ACB0002E4A934245D07B681B68B3F1804F40D049
:10ACC0007B681B682A4A93423BD07B681B68294AF1
:10ACD000934236D07B681B68274A934231D07B6809
:10ACE0001B68264A93422CD07B681B68244A9342F7
:10ACF00027D07B681B68234A934222D07B681B685D
:10AD0000214A93421DD07B681B68204A934218D089
:10AD10007B681B681E4A934213D07B681B681D4AE0
:10AD200093420ED07B681B681B4A934209D07B6814
:10AD30001B681A4A934204D04FF4B171184801F0CD
:10AD400027FB7B681B687A681268D26842F00102B0
:10AD5000DA607B681B687A681268126842F0010248
:10AD60001A60002318460837BD4680BD0000014028
:10AD70000004004000080040000C004000100040AB
:10AD80000014004000040140004001400044014024
:10AD90000048014000180040001C00400020004016
:10ADA00004D5000880B582B000AF78607B681B686E
:10ADB0001B6903F00203002B22D07B681B68DB6851
:10ADC00003F00203002B1BD07B681B686FF00202AC
:10ADD0001A617B6801221A767B681B689B6903F005
:10ADE0000303002B03D0786800F0EEF805E07868E4
:10ADF00000F0E0F8786800F0F1F87B6800221A763D
:10AE00007B681B681B6903F00403002B22D07B685E
:10AE10001B68DB6803F00403002B1BD07B681B68F6
:10AE20006FF004021A617B6802221A767B681B6845
:10AE30009B6903F44073002B03D0786800F0C4F8DA
:10AE400005E0786800F0B6F8786800F0C7F87B682D
:10AE500000221A767B681B681B6903F00803002B2D
:10AE600022D07B681B68DB6803F00803002B1BD033
:10AE70007B681B686FF008021A617B6804221A76EF
:10AE80007B681B68DB6903F00303002B03D0786841
:10AE900000F09AF805E0786800F08CF8786800F027
:10AEA0009DF87B6800221A767B681B681B6903F09B
:10AEB0001003002B22D07B681B68DB6803F01003B3
:10AEC000002B1BD07B681B686FF010021A617B6837
:10AED00008221A767B681B68DB6903F44073002B39
:10AEE00003D0786800F070F805E0786800F062F848
:10AEF000786800F073F87B6800221A767B681B681C
:10AF00001B6903F00103002B0ED07B681B68DB6814
:10AF100003F00103002B07D07B681B686FF0010270
:10AF20001A61786800F08EF97B681B681B6903F072
:10AF30008003002B0ED07B681B68DB6803F0800366
:10AF4000002B07D07B681B686FF080021A6178685D
:10AF500000F00AF97B681B681B6903F04003002BB3
:10AF60000ED07B681B68DB6803F04003002B07D022
:10AF70007B681B686FF040021A61786800F038F84F
:10AF80007B681B681B6903F02003002B0ED07B68D5
:10AF90001B68DB6803F02003002B07D07B681B686D
:10AFA0006FF020021A61786800F0D4F800BF08370B
:10AFB000BD4680BD80B483B000AF786000BF0C3761
:10AFC000BD4680BC704700BF80B483B000AF7860DE
:10AFD00000BF0C37BD4680BC704700BF80B483B053
:10AFE00000AF786000BF0C37BD4680BC704700BF23
:10AFF00080B483B000AF786000BF0C37BD4680BC22
:10B00000704700BF80B485B000AF7860396000231E
:10B01000FB607B681B68FB607B68434A934213D0EC
:10B020007B68B3F1804F0FD07B68404A93420BD0CE
:10B030007B683F4A934207D07B683E4A934203D0E5
:10B040007B683D4A934201D1012300E00023002B9D
:10B0500008D0FB6823F07003FB603B685B68FA680C
:10B060001343FB607B68304A93422BD07B68B3F17B
:10B07000804F27D07B682D4A934223D07B682C4A8F
:10B0800093421FD07B682B4A93421BD07B682A4A8D
:10B09000934217D07B68294A934213D07B68284A91
:10B0A00093420FD07B68274A93420BD07B68264A95
:10B0B000934207D07B68254A934203D07B68244A99
:10B0C000934201D1012300E00023002B08D0FB684C
:10B0D00023F44073FB603B68DB68FA681343FB6052
:10B0E0007B68FA681A603B689A687B68DA623B683A
:10B0F0001A687B689A627B680B4A934203D07B682C
:10B100000D4A934201D1012300E00023002B03D01C
:10B110003B681A697B681A637B6801225A6100BF29
:10B120001437BD4680BC7047000001400004004059
:10B1300000080040000C00400004014000400140B5
:10B14000004401400048014000180040001C00403D
:10B150000020004080B483B000AF786000BF0C379F
:10B16000BD4680BC704700BF80B483B000AF78603C
:10B1700000BF0C37BD4680BC704700BF80B58CB0A7
:10B1800000AF78600023BB6200237B6200227968F5
:10B190003620FEF7ADF93620FEF7D6F90023BB6066
:10B1A000244A244B1B6C43F010031364214B1B6C8B
:10B1B00003F01003BB60BB6807F10C0207F110033A
:10B1C00011461846FEF7ACFFFB69BB62BB6A002B59
:10B1D00003D1FEF77DFFF86204E0FEF779FF034636
:10B1E0005B00FB62FB6A144AA2FB03239B0C013B3E
:10B1F0007B62124B124A1A60104B40F2E732DA605F
:10B200000E4A7B6A53600D4B00221A610B4B0022E1
:10B210009A600A48FFF780FC0346002B04D10748D8
:10B22000FFF740FD034600E0012318463037BD46D6
:10B2300080BD00BF0038024083DE1B439400002025
:10B240000010004080B582B000AF7860FEF734F89F
:10B2500000BF0837BD4680BD80B500AF0248FFF78C
:10B26000A1FD00BF80BD00BF9400002080B582B06A
:10B2700000AF78607B68002B01D10123B4E07B68CC
:10B280009B69002B31D07B681B68594A934213D0CD
:10B290007B681B68574A93420ED07B681B68564AEE
:10B2A000934209D07B681B68544A934204D04FF400
:10B2B0008071534801F06CF87B689B69002B37D094
:10B2C0007B689B69B3F5807F32D07B689B69B3F55F
:10B2D000007F2DD07B689B69B3F5407F28D040F27A
:10B2E0000111474801F054F822E07B681B68404A8E
:10B2F00093421DD07B681B683E4A934218D07B68FE
:10B300001B683D4A934213D07B681B683D4A9342B9
:10B310000ED07B681B683C4A934209D07B681B684F
:10B32000364A934204D040F20511354801F030F816
:10B330007B689B68002B09D07B689B68B3F5805FB6
:10B3400004D040F207112E4801F022F87B68DB6937
:10B35000002B09D07B68DB69B3F5004F04D04FF4B4
:10B360008471274801F014F87B6893F83930DBB218
:10B37000002B06D17B68002283F83820786800F023
:10B3800045F87B68242283F839207B681B687A683B
:10B390001268D26822F40052DA60786800F022F96C
:10B3A0007B681B687A681268126922F490421A61FD
:10B3B0007B681B687A681268526922F02A025A6117
:10B3C0007B681B687A681268D26842F40052DA60BF
:10B3D0007B680022DA637B68202283F839207B684F
:10B3E000202283F83A20002318460837BD4680BD46
:10B3F000001001400044004000480040001401409B
:10B4000074D50008004C00400050004080B483B068
:10B4100000AF786000BF0C37BD4680BC704700BFEE
:10B4200080B588B002AFF860B9603B601346FB801E
:10B4300000237B61FB6893F83930DBB2202B40F0AE
:10B440008280BB68002B02D0FB88002B01D1012336
:10B450007AE0FB6893F83830012B01D1022373E0C6
:10B46000FB68012283F83820FB680022DA63FB685E
:10B47000212283F83920FDF731FF7861FB68FA88D3
:10B480009A84FB68FA88DA8441E0FB68DB8C9BB223
:10B49000013B9AB2FB68DA84FB689B68B3F5805F76
:10B4A00021D13B6800937B6900228021F86800F07D
:10B4B0004FF80346002B01D0032345E0BB683B61F6
:10B4C000FB681B683A691288C2F308025A60FB687D
:10B4D0001B69002B03D1BB680233BB6017E0BB685C
:10B4E0000133BB6013E03B6800937B69002280213D
:10B4F000F86800F02DF80346002B01D0032323E069
:10B50000FB681A68BB68591CB9601B785360FB68FC
:10B51000DB8C9BB2002BB8D13B6800937B69002287
:10B520004021F86800F014F80346002B01D00323F3
:10B530000AE0FB68202283F83920FB68002283F8A8
:10B540003820002300E0022318461837BD4680BD8E
:10B5500080B584B000AFF860B9603B601346FB7102
:10B560002CE0BB69B3F1FF3F28D0BB69002B07D0AB
:10B57000FDF7B4FE02463B68D21ABB699A421DD958
:10B58000FB681B68FA681268D26822F4D072DA602D
:10B59000FB681B68FA681268526922F001025A615E
:10B5A000FB68202283F83920FB68202283F83A20A8
:10B5B000FB68002283F8382003230FE0FB681B6838
:10B5C0001A68BB681A40BB689A420CBF012300236B
:10B5D000DBB21A46FB799A42C3D0002318461037D3
:10B5E000BD4680BDF0B585B000AF78600023FB603C
:10B5F0007B685B68B04A934204D940F68511AF4836
:10B6000000F0C6FE7B68DB68002B09D07B68DB6836
:10B61000B3F5005F04D040F68611A84800F0B8FEEC
:10B620007B681B69002B0ED07B681B69B3F5806FAC
:10B6300009D07B681B69B3F5C06F04D040F6871151
:10B640009E4800F0A5FE7B685A694FF6F3731340DD
:10B65000002B03D17B685B69002B04D140F6881175
:10B66000964800F095FE7B681B681B69FB60FB68D1
:10B6700023F44053FB607B68DB68FA681343FB608C
:10B680007B681B68FA681A617B681B68DB68FB6073
:10B69000FB6823F4164323F00C03FB607B689A6875
:10B6A0007B681B691A437B685B691A437B68DB69AB
:10B6B0001343FA681343FB607B681B68FA68DA601F
:10B6C0007B681B685B69FB60FB6823F44073FB606D
:10B6D0007B689B69FA681343FB607B681B68FA68A8
:10B6E0005A617B68DB69B3F5004F40F0EF807B68FF
:10B6F0001B68734A934204D07B681B68714A93426B
:10B700006CD17B681C68FEF7F7FC024613469B0071
:10B7100013449A001A447B685B685B00B2FBF3F346
:10B72000694AA2FB03235B091D01FEF7E5FC024603
:10B7300013469B0013449A001A447B685B685B00C5
:10B74000B2FBF3F6FEF7D8FC024613469B00134407
:10B750009A001A447B685B685B00B2FBF3F35A4AB9
:10B76000A2FB03235B09642202FB03F3F31ADB0051
:10B770003233554AA2FB03235B0903F0F8035B0055
:10B780001D44FEF7B9FC024613469B0013449A0081
:10B790001A447B685B685B00B2FBF3F6FEF7ACFC17
:10B7A000024613469B0013449A001A447B685B6868
:10B7B0005B00B2FBF3F3444AA2FB03235B09642260
:10B7C00002FB03F3F31ADB0032333F4AA2FB0323ED
:10B7D0005B0903F007032B44A36059E17B681C68F5
:10B7E000FEF776FC024613469B0013449A001A4467
:10B7F0007B685B685B00B2FBF3F3334AA2FB032375
:10B800005B091D01FEF764FC024613469B001344CE
:10B810009A001A447B685B685B00B2FBF3F6FEF7A4
:10B8200057FC024613469B0013449A001A447B6857
:10B830005B685B00B2FBF3F3234AA2FB03235B09C3
:10B84000642202FB03F3F31ADB0032331E4AA2FB2D
:10B8500003235B0903F0F8035B001D44FEF738FC8B
:10B86000024613469B0013449A001A447B685B68A7
:10B870005B00B2FBF3F6FEF72BFC024613469B007F
:10B8800013449A001A447B685B685B00B2FBF3F3D5
:10B890000D4AA2FB03235B09642202FB03F3F31AA4
:10B8A000DB003233084AA2FB03235B0903F00703E2
:10B8B0002B44A360ECE000BFA037A00074D50008C3
:10B8C00000100140001401401F85EB517B681B688C
:10B8D000714A934204D07B681B68704A93426BD1D3
:10B8E0007B681C68FEF708FC024613469B00134465
:10B8F0009A001A447B685B689B00B2FBF3F3684ACA
:10B90000A2FB03235B091D01FEF7F6FB024613466B
:10B910009B0013449A001A447B685B689B00B2FB4F
:10B92000F3F6FEF7E9FB024613469B0013449A0028
:10B930001A447B685B689B00B2FBF3F3584AA2FB96
:10B9400003235B09642202FB03F3F31A1B01323366
:10B95000534AA2FB03235B0903F0F0031D44FEF7E7
:10B96000CBFB024613469B0013449A001A447B68A3
:10B970005B689B00B2FBF3F6FEF7BEFB0246134684
:10B980009B0013449A001A447B685B689B00B2FBDF
:10B99000F3F3434AA2FB03235B09642202FB03F394
:10B9A000F31A1B0132333E4AA2FB03235B0903F067
:10B9B0000F032B44A3606BE07B681C68FEF788FBD9
:10B9C000024613469B0013449A001A447B685B6846
:10B9D0009B00B2FBF3F3324AA2FB03235B091D0178
:10B9E000FEF776FB024613469B0013449A001A4466
:10B9F0007B685B689B00B2FBF3F6FEF769FB0246CF
:10BA000013469B0013449A001A447B685B689B00B2
:10BA1000B2FBF3F3224AA2FB03235B09642202FB7D
:10BA200003F3F31A1B0132331D4AA2FB03235B0904
:10BA300003F0F0031D44FEF74BFB024613469B0048
:10BA400013449A001A447B685B689B00B2FBF3F6D0
:10BA5000FEF73EFB024613469B0013449A001A442D
:10BA60007B685B689B00B2FBF3F30D4AA2FB0323E8
:10BA70005B09642202FB03F3F31A1B013233084A09
:10BA8000A2FB03235B0903F00F032B44A360FFE732
:10BA900000BF1437BD46F0BD001001400014014046
:10BAA0001F85EB5180B58CB000AF00F097FB00F024
:10BAB00041FC07F1180300221A605A609A60DA60AC
:10BAC0001A610023FB6100233B6207F11802012386
:10BAD0004FF400510C4800F053F90C4A4FF4005158
:10BAE000094800F03BF90123BB600023FB60002301
:10BAF0003B613B1D1A462021054800F069F800F023
:10BB00003DF80346FB62FEE70008024015BB000853
:10BB10000000024080B500AF01222021144800F04F
:10BB20006DF84FF4FA7000F039FC00222021104823
:10BB300000F064F84FF4FA7000F030FC012220218C
:10BB40000B4800F05BF84FF4FA7000F027FC00227D
:10BB50002021074800F052F8064B074A1068186089
:10BB600012791A71034800F021F800BF80BD00BFB0
:10BB700000000240D0000020E4D5000880B500AFEE
:10BB8000002304220849022000F0E6FC00230822DA
:10BB90000549022000F02AFD4FF41651022000F062
:10BBA00041FC0346184680BD0000024080B582B0CB
:10BBB00000AF78604FF0FF327968044800F0BAFDBA
:10BBC000034618460837BD4680BD00BF004400400C
:10BBD00080B584B000AFF8600B467A607B81F8686E
:10BBE00000F01EF87A897B681A607968F868FDF7BA
:10BBF0000FFD00BF1037BD4680BD00BF80B582B0CD
:10BC000000AF78600B467B8013467B707A787B8828
:10BC100019467868FEF72AF800BF0837BD4680BD90
:10BC200080B48BB000AF78607B68444A93420ED1F9
:10BC300000237B62424A424B1B6B43F001031363B8
:10BC40003F4B1B6B03F001037B627B6A70E07B68F8
:10BC50003C4A93420ED100233B62394A384B1B6B5E
:10BC600043F002031363364B1B6B03F002033B628A
:10BC70003B6A5DE07B68344A93420ED10023FB614E
:10BC80002F4A2F4B1B6B43F0040313632C4B1B6B8E
:10BC900003F00403FB61FB694AE07B682B4A934293
:10BCA0000ED10023BB61264A254B1B6B43F00803D2
:10BCB0001363234B1B6B03F00803BB61BB6937E0C5
:10BCC0007B68234A93420ED100237B611C4A1C4BA4
:10BCD0001B6B43F010031363194B1B6B03F0100332
:10BCE0007B617B6924E07B681A4A93420ED1002372
:10BCF0003B61134A124B1B6B43F020031363104B41
:10BD00001B6B03F020033B613B6911E07B68124A27
:10BD100093420DD10023FB60094A094B1B6B43F092
:10BD200080031363064B1B6B03F08003FB60FB680F
:10BD300000BF2C37BD4680BC704700BF00000240EA
:10BD4000003802400004024000080240000C02409B
:10BD50000010024000140240001C024080B584B074
:10BD600000AFF8600B467A607B817B897968184662
:10BD700000F038F8034618461037BD4680BD00BFB6
:10BD800080B584B000AFF8607A601A460B467B81BC
:10BD900013467B727B7A002B0BD07B7A012B06D06B
:10BDA0007B7A022B01D10C4B04E0002302E00B4B09
:10BDB00000E00B4B7A6853607B897A681946F86813
:10BDC000FFF706FF7B890121184600F089F803463A
:10BDD00018461037BD4680BD00003110000021100C
:10BDE0000000111080B485B000AF03463960FB80BD
:10BDF000FB88802B49D0802B11DC082B39D0082BF5
:10BE000006DC022B2FD0042B30D0012B28D057E09A
:10BE1000202B34D0402B35D0102B2DD050E0B3F553
:10BE2000006F3ED0B3F5006F09DCB3F5007F32D070
:10BE3000B3F5806F32D0B3F5807F29D040E0B3F501
:10BE4000005F34D0B3F5005F03DCB3F5805F2BD027
:10BE500036E0B3F5804F2DD0B3F5004F2DD02FE055
:10BE60000023FB602EE00123FB602BE00223FB603C
:10BE700028E00323FB6025E00423FB6022E0052388
:10BE8000FB601FE00623FB601CE00723FB6019E05A
:10BE90000823FB6016E00923FB6013E00A23FB6024
:10BEA00010E00B23FB600DE00C23FB600AE00D2388
:10BEB000FB6007E00E23FB6004E00F23FB6001E062
:10BEC000012305E00549FB683A6841F82320002377
:10BED00018461437BD4680BC704700BF7001002073
:10BEE00080B584B000AF03460A46FB8013467B71E1
:10BEF000FB88802B49D0802B11DC082B39D0082BF4
:10BF000006DC022B2FD0042B30D0012B28D057E099
:10BF1000202B34D0402B35D0102B2DD050E0B3F552
:10BF2000006F3ED0B3F5006F09DCB3F5007F32D06F
:10BF3000B3F5806F32D0B3F5807F29D040E0B3F500
:10BF4000005F34D0B3F5005F03DCB3F5805F2BD026
:10BF500036E0B3F5804F2DD0B3F5004F2DD02FE054
:10BF60000623FB732EE00723FB732BE00823FB73F0
:10BF700028E00923FB7325E00A23FB7322E0172343
:10BF8000FB731FE01723FB731CE01723FB7319E0FF
:10BF90001723FB7316E01723FB7313E02823FB73AF
:10BFA00010E02823FB730DE02823FB730AE028230D
:10BFB000FB7307E02823FB7304E02823FB7301E0F5
:10BFC000012315E097F90F3000220F211846FDF7E5
:10BFD0008FFA7B79002B05D097F90F301846FDF7C3
:10BFE000B3FA04E097F90F301846FDF7C5FA0023BD
:10BFF00018461037BD4680BD80B400AF064B5B6964
:10C0000003F00103002B02D0034B01225A6100BF51
:10C01000BD4680BC704700BF003C014080B400AF0B
:10C02000064B5B6903F00203002B02D0034B022294
:10C030005A6100BFBD4680BC704700BF003C014054
:10C0400080B400AF064B5B6903F00403002B02D001
:10C05000034B04225A6100BFBD4680BC704700BF3D
:10C06000003C014080B400AF064B5B6903F008035D
:10C07000002B02D0034B08225A6100BFBD4680BC92
:10C08000704700BF003C014080B400AF064B5B69C5
:10C0900003F01003002B02D0034B10225A6100BFA3
:10C0A000BD4680BC704700BF003C014080B400AF7B
:10C0B000194B5B6903F02003002B02D0164B2022A2
:10C0C0005A61154B5B6903F04003002B02D0124B01
:10C0D00040225A61104B5B6903F08003002B02D0B1
:10C0E0000D4B80225A610C4B5B6903F48073002B6B
:10C0F00003D0094B4FF480725A61074B5B6903F41C
:10C100000073002B03D0044B4FF400725A6100BF40
:10C11000BD4680BC704700BF003C014080B500AF09
:10C12000204B5B6903F48063002B03D01D4B4FF45D
:10C1300080625A611B4B5B6903F40063002B03D0E0
:10C14000184B4FF400625A61164B5B6903F480533D
:10C15000002B03D0134B4FF480525A61114B5B6993
:10C1600003F40053002B06D00E4B4FF400525A61DB
:10C170000D4B5B6B98470B4B5B6903F48043002BC3
:10C1800003D0084B4FF480425A61064B5B6903F4BD
:10C190000043002B03D0034B4FF400425A6100BF11
:10C1A00080BD00BF003C01407001002080B400AFA2
:10C1B00000BFBD4680BC704780B400AF00BFBD4625
:10C1C00080BC704780B400AF00BFBD4680BC7047E4
:10C1D00080B500AFFDF770F800BF80BD80B500AF3F
:10C1E000FDF748F80320FDF763F9002200216FF006
:10C1F0000B00FDF77DF9002200216FF00A00FDF72A
:10C2000077F9002200216FF00900FDF771F9002293
:10C2100000216FF00400FDF76BF9002200216FF0A0
:10C220000300FDF765F9002200216FF00100FDF722
:10C230005FF9002200214FF0FF30FDF759F900F0BF
:10C2400007F800F0BBFA00F0D7F800BF80BD00BFD0
:10C2500080B594B000AF00237B60334A324B1B6C37
:10C2600043F080531364304B1B6C03F080537B60AE
:10C270007B6800233B602D4A2C4B1B6843F44043F2
:10C2800013602A4B1B6803F440433B603B68022366
:10C29000FB610123BB621023FB6202237B6300234B
:10C2A000BB630823FB63B4233B6402237B64022348
:10C2B000BB640223FB6407F11C031846FEF710F968
:10C2C0000346002B01D000F05DF8FDF707FD0346A3
:10C2D000002B01D000F056F80F23BB600223FB6057
:10C2E00000233B614FF4A0537B614FF48053BB614B
:10C2F00007F1080305211846FDF73EFD0346002B14
:10C3000001D000F03FF8FDF7D9FE0246084BA3FB31
:10C3100002239B091846FDF747F90420FDF750F961
:10C3200000BF5037BD4680BD00380240007000405D
:10C33000D34D621080B586B000AF0023BB600023F0
:10C34000FB603B1D1A464FF400510C48FFF740FCC0
:10C350000123BB600023FB6000233B613B1D1A46A9
:10C3600020210748FFF734FC002220210448FFF772
:10C3700045FC00BF1837BD4680BD00BF0008024025
:10C380000000024080B400AF00BFBD4680BC7047D3
:10C3900080B483B000AF78603960FEE780B584B0C8
:10C3A00000AF78600023FB60FCF798FFF860FB6843
:10C3B000BB607A68FB681A44FB689A4212D202E0BA
:10C3C000FCF78CFFB8607B68BA689A42F8D87A6844
:10C3D000FB68134401337B600023FB6002E0FCF741
:10C3E0007DFFB860BA68FB68D21A7B689A42F6D3C0
:10C3F00000BF1037BD4680BD80B500AF00F0DEF94C
:10C40000054B1B68054AA2FB03239B0C9AB2044B05
:10C410001A8000BF80BD00BF0400002083DE1B43E4
:10C42000B001002080B588B000AF03463960FB71D1
:10C43000FB79013B032B5BD801A252F823F000BF2C
:10C4400051C4000879C40008A1C40008C9C4000888
:10C45000384BFB6100237B61374A374B5B6C43F001
:10C4600010035364344B5B6C03F010037B617B69F6
:10C47000FB69324A1A603DE0314BFB6100233B61AE
:10C480002D4A2D4B1B6C43F4003313642A4B1B6C59
:10C4900003F400333B613B69FB692A4A1A6029E0D7
:10C4A000294BFB610023FB60234A234B1B6C43F4A5
:10C4B00080231364204B1B6C03F48023FB60FB6818
:10C4C000FB69224A1A6015E0214BFB610023BB6027
:10C4D000194A194B1B6C43F400231364164B1B6C55
:10C4E00003F40023BB60BB68FB691A4A1A6001E0D1
:10C4F00001231BE0FB693A685A60FB6900229A60DD
:10C50000FB690022DA60FB6900221A61FB690C22D8
:10C510005A61FB6900229A61FB690022DA61F869BD
:10C52000FEF7A4FE0346FB7697F91B30184620372A
:10C53000BD4680BDB401002000380240001001401B
:10C54000F401002000440040340200200048004074
:10C5500074020020004C004080B58AB000AFB96082
:10C560007B600346FB731346BB81FF237B62FB7B2F
:10C57000013B032B16D801A252F823F08DC5000809
:10C5800093C5000899C500089FC5000807237B6272
:10C5900009E007237B6206E007237B6203E00823B0
:10C5A0007B6200E000BF7B6AFF2B01D1012318E012
:10C5B000B868FFF735FB07F1100300221A605A60D4
:10C5C0009A60DA601A6102237B617B68BB617B6AD7
:10C5D0003B6207F11002BB891946B868FFF7F8FA09
:10C5E000002318462837BD4680BD00BF80B58AB0FD
:10C5F00000AFB9607B600346FB731346BB81FF232A
:10C600007B62FB7B013B032B16D801A252F823F07F
:10C6100021C6000827C600082DC6000833C600083A
:10C6200007237B6209E007237B6206E007237B6226
:10C6300003E008237B6200E000BF7B6AFF2B01D18F
:10C64000012318E0B868FFF7EBFA07F110030022A6
:10C650001A605A609A60DA601A6102237B617B6813
:10C66000BB617B6A3B6207F11002BB891946B8685F
:10C67000FFF7AEFA002318462837BD4680BD00BF3D
:10C6800080B586B000AFF860B9603B601346FB80B0
:10C69000FB681C4A934202D11B4B7B6124E0FB6880
:10C6A0001A4A934202D11A4B7B611DE0FB68194A7A
:10C6B000934202D1184B7B6116E0FB68174A934204
:10C6C00002D1174B7B610FE0FB68164A934202D1FF
:10C6D000154B7B6108E0FB68144A934202D1144B6E
:10C6E0007B6101E0012309E0FA883B68B968786959
:10C6F000FEF796FE0346FB7497F913301846183779
:10C70000BD4680BD00100140B4010020004400403F
:10C71000F40100200048004034020020004C00409A
:10C720007402002000500040B402002000140140B8
:10C73000F402002080B584B000AFF860B9607A6080
:10C74000B868FCF78FFD03469AB27B68B968F86851
:10C75000FFF796FF034618461037BD4680BD00BF61
:10C7600080B400AF124A124B1B6843F00103136000
:10C770000F4B00229A600E4A0D4B1B6823F0847306
:10C7800023F4803313600A4B0A4A5A60084A084B64
:10C790001B6823F480231360054B0022DA60064BEC
:10C7A0004FF000629A6000BFBD4680BC704700BF7A
:10C7B000003802401030002400ED00E080B487B063
:10C7C00000AF00233B6100237B610223FB60002359
:10C7D000BB6002237B60324B9B6803F00C033B6120
:10C7E0003B69042B07D0082B09D0002B3FD12D4BE0
:10C7F0002D4A1A603FE02B4B2C4A1A603BE0284B35
:10C800005B6803F480039B0DBB60254B5B6803F002
:10C810003F037B60BB68002B0DD0244A7B68B2FBD2
:10C82000F3F21F4B596847F6C0730B409B0903FB9B
:10C8300002F37B610CE01C4A7B68B2FBF3F2184BFD
:10C84000596847F6C0730B409B0903FB02F37B61F9
:10C85000134B5B6803F440331B0C01335B00FB603C
:10C860007A69FB68B2FBF3F30E4A136003E00D4BE9
:10C870000D4A1A6000BF0A4B9B6803F0F0031B09C6
:10C880000B4AD35C3B61074B1A683B6922FA03F3FE
:10C89000044A136000BF1C37BD4680BC704700BF10
:10C8A00000380240040000200024F40000127A0046
:10C8B000ECD50008DFF834D0002103E00C4B5B58C6
:10C8C000435004310B480C4B42189A42F6D30B4AA2
:10C8D00002E0002342F8043B094B9A42F9D3FFF7E8
:10C8E0003FFF00F0BDFBFFF7DDF8704700000220BE
:10C8F0009CD8000800000020740000207400002074
:10C9000000040020FEE77FB5102302930368002493
:10C9100015469E6900946B468DF804400394126896
:10C92000B0479DF8043003F00603062B03BF009BBD
:10C930002B600120204604B070BD009890420CBFCF
:10C94000062001207047000010B5034B0360044629
:10C9500000F0D6F9204610BD0CD6000810B50446EC
:10C96000FFF7F2FF204600F03FF8204610BD38B533
:10C9700015461C4600F0C7F920B10823E3600623E2
:10C980002560237138BD2DE9F041069E099C98462B
:10C99000089B9E420746154603D1079900F0B3F95C
:10C9A00048B94146384600F0AEF928B10123266067
:10C9B0002571A37100E065710020BDE8F0812DE9CB
:10C9C000F04105460C4616461F4600F09CF948B952
:10C9D000032F07D823683246294620465B69BDE805
:10C9E000F0411847BDE8F08100F068BB0378472BA1
:10C9F00017D143784E2B14D18378552B11D1C3789E
:10CA0000432B0ED10379432B0BD143792B2B08D128
:10CA100083792B2B05D1C07901288CBF0020012000
:10CA200070470020704700002DE9F3411D46037850
:10CA3000472B0E460246C17944D143784E2B41D153
:10CA40008378552B3ED1C378432B3BD10379462BBA
:10CA500038D143794F2B35D18379522B32D10029EC
:10CA600030D1012308460024019483B988B90129F3
:10CA70000ABF52F8203CA2F12003783B012908BFED
:10CA800052F8202C1C6818BF5832019202E0134C57
:10CA900000E0134C236820469B68984720B1019B17
:10CAA0001B680193022700E00127336801AAD3F82D
:10CAB0001080214601233046C04758B1019B2B60AE
:10CAC000384607E01046FFF791FF80F00100C0B242
:10CAD0000023C8E702B0BDE8F08100BF80D600089F
:10CAE000ACD6000810B5044600F060F802462046B7
:10CAF000A4F12001FFF77AFF50B154F8043C013350
:10CB0000012B44F8043C08D1936844F8083C03E046
:10CB100093680BB100F05AF89160012010BD0378C2
:10CB2000472B17D143784E2B14D18378552B11D135
:10CB3000C378432B0ED10379432B0BD143792B2B95
:10CB400008D183792B2B05D1C07901288CBF002017
:10CB5000012070470020704738B5054600F026F8E0
:10CB6000014602682846A5F12004FFF7D8FF28B93E
:10CB70000AB100F02BF80C60144615E055F80C3C97
:10CB8000002BB4BFC3F10103013345F80C3C4B68E3
:10CB9000A24203F1FF334B6028461CBF45F8102C1E
:10CBA0000C606C6AFBF7A8FD204638BD0048704752
:10CBB0003403002008B5804700F04AFA024B186899
:10CBC000BFF35F8F704700BF0C00002008B5FFF770
:10CBD000F5FFFFF7EFFF08B58047FFF7F7FF00000D
:10CBE000024B1868BFF35F8F704700BF080000203A
:10CBF00008B5FFF7F5FFFFF7EEFF000010B5034B98
:10CC000003600446FFF7A0FE204610BDBCD6000816
:10CC100010B50446FFF7F2FF2046FFF7E5FE204679
:10CC200010BD2DE9F14F0E46194683461746994629
:10CC30000A9CDDF82CA0DDF830800D9D00F063F833
:10CC400078B1002E2C602F7106DB3444A0450CBF58
:10CC500006240124AC711EE002361CD10123AB7105
:10CC600019E0444504D15146584600F04CF888B9C3
:10CC7000DBF8080003680D95CDF83080CDF82CA0C6
:10CC80000A94DC693A464B463146A44601B0BDE8F9
:10CC9000F04F60476F71002001B0BDE8F08F2DE9C3
:10CCA000F041069E964280460F4614461D4603D12B
:10CCB000194600F028F858B9D8F808000368069615
:10CCC0001E6A22462B463946B446BDE8F04160470D
:10CCD0000620BDE8F0812DE9F04104460D461646D8
:10CCE0001F46FFF744FE48B9A06803689C693246B6
:10CCF0003B462946A446BDE8F0416047BDE8F081C7
:10CD0000704700207047814208B50ED04068037814
:10CD10002A2B0CD049680B782A2B08BF0131FCF76D
:10CD200097FAB0FA80F0400908BD012008BD002044
:10CD300008BD000038B5084C4FF41E652846E56074
:10CD400000F0B4F9A06010B9E060606038BD002365
:10CD500060600560436038BD400300200378472BC6
:10CD600017D143784E2B14D18378552B11D1C3782A
:10CD7000432B0ED10379432B0BD143792B2B08D1B5
:10CD800083792B2B05D1C07901288CBF002001208D
:10CD900070470020704738B50246FFF7DFFF18B133
:10CDA00052F8184C002501E0044601251046FFF713
:10CDB000D3FE0DB1FFF71CFF2046FFF70CFF00006C
:10CDC000244B1A68D0075CBF01221A60224B1A68F4
:10CDD000D1075CBF01221A60204B1A68D2075CBFE2
:10CDE00001221A601E4B1A68D0075CBF01221A602C
:10CDF0001C4B1A68D1075CBF01221A601A4B1A68D3
:10CE0000D2075CBF01221A60184B1A68D0075CBFBA
:10CE100001221A60164B1A68D1075CBF01221A6002
:10CE2000144B1A68D2075CBF01221A60124B1A68B1
:10CE3000D0075CBF01221A60104B1A68D1075CBF93
:10CE400001221A600E4B1A68D2075CBF01221A60D9
:10CE5000704700BF7C03002078030020740300208B
:10CE6000700300206C03002068030020640300208E
:10CE7000600300205C0300205803002054030020BE
:10CE800050030020184B1A68D1075CBF01221A60BA
:10CE9000164B1A68D2075CBF01221A60144B1A683D
:10CEA000D0075CBF01221A60124B1A68D1075CBF21
:10CEB00001221A60104B1A68D2075CBF01221A6067
:10CEC0000E4B1A68D0075CBF01221A600C4B1A681F
:10CED000D1075CBF01221A600A4B1A68D2075CBFF7
:10CEE00001221A60704700BF9C03002098030020B5
:10CEF00094030020900300208C030020880300206E
:10CF00008403002080030020184B1A68D1075CBFFF
:10CF100001221A60164B1A68D2075CBF01221A6000
:10CF2000144B1A68D0075CBF01221A60124B1A68B2
:10CF3000D1075CBF01221A60104B1A68D2075CBF90
:10CF400001221A600E4B1A68D0075CBF01221A60DA
:10CF50000C4B1A68D1075CBF01221A600A4B1A6891
:10CF6000D2075CBF01221A60704700BFBC030020DB
:10CF7000B8030020B4030020B0030020AC0300205D
:10CF8000A8030020A4030020A0030020244B1A685B
:10CF9000D0075CBF01221A60224B1A68D1075CBF20
:10CFA00001221A60204B1A68D2075CBF01221A6066
:10CFB0001E4B1A68D0075CBF01221A601C4B1A680E
:10CFC000D1075CBF01221A601A4B1A68D2075CBFF6
:10CFD00001221A60184B1A68D0075CBF01221A6040
:10CFE000164B1A68D1075CBF01221A60144B1A68ED
:10CFF000D2075CBF01221A60124B1A68D0075CBFCF
:10D0000001221A60104B1A68D1075CBF01221A6016
:10D010000E4B1A68D2075CBF01221A60704700BF2E
:10D02000EC030020E8030020E4030020E0030020DC
:10D03000DC030020D8030020D4030020D00300200C
:10D04000CC030020C8030020C4030020C00300203C
:10D0500008B5062000F02CF9012000F065F9000069
:10D0600070B50E4B0E4CE41AA41000251E46A542C6
:10D0700004D056F8253098470135F8E700F056F906
:10D08000084C094BE41AA41000251E46A54204D002
:10D0900056F8253098470135F8E770BD80D800086C
:10D0A00080D8000898D8000880D80008024B0146B4
:10D0B000186800F065B800BF70000020024B014600
:10D0C000186800F00FB800BF7000002010B5431EB4
:10D0D0000A44914204D011F8014B03F8014FF8E7DC
:10D0E00010BD000038B50546002946D051F8043C73
:10D0F0000C1F002BB8BFE41800F0F6F81F4A1368A5
:10D10000114613B96360146032E0A3420ED922685D
:10D11000A018834204BF18685B68636004BF1218DC
:10D1200022600C6024E0A24203D813465A68002A09
:10D13000F9D118681918A1420BD121680144581877
:10D140008242196014D1106852685A600144196013
:10D150000EE002D90C232B600AE02168601882429D
:10D1600004BF10685268626004BF091821605C60E7
:10D170002846BDE8384000F0B8B838BDF4030020B8
:10D1800070B5CD1C25F0030508350C2D38BF0C25D6
:10D19000002D064601DBA94202D90C23336046E08C
:10D1A00000F0A2F8234B1C681A462146A1B10B6877
:10D1B0005B1B0ED40B2B03D90B60CC18CD501EE09B
:10D1C0008C420DBF63684B686360136018BF0C46E8
:10D1D00015E00C464968E9E7174C23681BB930464F
:10D1E00000F02CF820602946304600F027F8431C58
:10D1F00018D0C41C24F00304A0420DD12560304691
:10D2000000F073F804F10B00231D20F00700C31A8F
:10D210000ED05A42E25070BD211A304600F00EF88E
:10D220000130EBD10C233360304600F05EF8002073
:10D2300070BD00BFF4030020F003002038B5064C99
:10D24000002305460846236000F060F8431C02D125
:10D25000236803B12B6038BDFC0300201F2938B5BB
:10D2600004460D4604D9162303604FF0FF3038BD45
:10D27000426C12B152F821304BB9204600F032F81E
:10D280002A4601462046BDE8384000F019B8012B77
:10D290000CD0591C03D116230360012038BD002493
:10D2A000284642F825409847204638BD002038BD22
:10D2B000024B01461868FFF7D1BF00BF7000002085
:10D2C00038B5074C0023054608461146236000F098
:10D2D00015F8431C02D1236803B12B6038BD00BF91
:10D2E000FC03002000F002B870477047024B582240
:10D2F0001A604FF0FF307047FC030020024B5822A9
:10D300001A604FF0FF307047FC030020044A0549C3
:10D310001368002B08BF0B4618441060184670476E
:10D32000F803002000040020FEE700BFF8B500BFAE
:10D33000F8BC08BC9E467047F8B500BFF8BC08BCF6
:04D340009E4670474E
:10D344002F55736572732F64696E6779616E672FE9
:10D354005075626C69632F4769744875622F6D69F3
:10D3640063726F6D6F7573655F70726F6A732F6D23
:10D374006D735F746573742F447269766572732F6D
:10D3840053544D3332463478785F48414C5F44728D
:10D39400697665722F5372632F73746D33326634FA
:10D3A40078785F68616C5F636F727465782E630070
:10D3B4002F55736572732F64696E6779616E672F79
:10D3C4005075626C69632F4769744875622F6D6983
:10D3D40063726F6D6F7573655F70726F6A732F6DB3
:10D3E4006D735F746573742F447269766572732FFD
:10D3F40053544D3332463478785F48414C5F44721D
:10D40400697665722F5372632F73746D3332663489
:10D4140078785F68616C5F6770696F2E63000000E5
:10D424002F55736572732F64696E6779616E672F08
:10D434005075626C69632F4769744875622F6D6912
:10D4440063726F6D6F7573655F70726F6A732F6D42
:10D454006D735F746573742F447269766572732F8C
:10D4640053544D3332463478785F48414C5F4472AC
:10D47400697665722F5372632F73746D3332663419
:10D4840078785F68616C5F7263632E6300000000EC
:10D494002F55736572732F64696E6779616E672F98
:10D4A4005075626C69632F4769744875622F6D69A2
:10D4B40063726F6D6F7573655F70726F6A732F6DD2
:10D4C4006D735F746573742F447269766572732F1C
:10D4D40053544D3332463478785F48414C5F44723C
:10D4E400697665722F5372632F73746D33326634A9
:10D4F40078785F68616C5F7263635F65782E630040
:10D504002F55736572732F64696E6779616E672F27
:10D514005075626C69632F4769744875622F6D6931
:10D5240063726F6D6F7573655F70726F6A732F6D61
:10D534006D735F746573742F447269766572732FAB
:10D5440053544D3332463478785F48414C5F4472CB
:10D55400697665722F5372632F73746D3332663438
:10D5640078785F68616C5F74696D2E6300000000F9
:10D574002F55736572732F64696E6779616E672FB7
:10D584005075626C69632F4769744875622F6D69C1
:10D5940063726F6D6F7573655F70726F6A732F6DF1
:10D5A4006D735F746573742F447269766572732F3B
:10D5B40053544D3332463478785F48414C5F44725B
:10D5C400697665722F5372632F73746D33326634C8
:10D5D40078785F68616C5F756172742E6300000017
:10D5E4006F6E650A000000000000000000000000EB
:10D5F40001020304060708090000000001020304F5
:10D604000000000030D6000849C900085DC90008C0
:10D6140003CD000803CD0008BFC9000807C90008EE
:10D624006FC9000887C900083BC90008BCD60008B8
:10D634003CD6000814D700084E31305F5F63787819
:10D64400616269763131375F5F636C6173735F74F4
:10D654007970655F696E666F45004E31305F5F6358
:10D664007878616269763131355F5F666F726365C0
:10D67400645F756E77696E64450000000CD600081F
:10D684005ED600084E31305F5F63787861626976F8
:10D694003131395F5F666F726569676E5F657863A4
:10D6A400657074696F6E45000CD6000888D6000852
:10D6B40000000000E0D60008FDCB000811CC0008F3
:10D6C40003CD000803CD0008BFC9000807C900083E
:10D6D400D7CC000823CC00089FCC0008BCD6000897
:10D6E400ECD6000830D600084E31305F5F6378789E
:10D6F400616269763132305F5F73695F636C617355
:10D70400735F747970655F696E666F450000000031
:10D714000CD600081CD70008537439747970655FFF
:10D72400696E666F00000000000000000000000049
:10D7340000000000000000000000000000000000E5
:10D7440000000000000000000000000000000000D5
:10D7540000000000000000000000000000000000C5
:10D7640000000000000000000000000000000000B5
:10D7740000000000000000000000000000000000A5
:08D7840000000000000000009D
:10D78C000B970181B0B008840000000008B1018142
:10D79C00B0B000840000000008B10181B0B000847A
:04D7AC000000000079
:10D7B000DCA8FF7F0100000054ACFF7FB0A902800D
:10D7C000ECACFF7FB0B0A8803CADFF7F0100000053
:10D7D00048ADFF7FB0B0AA8080ADFF7FAE71B28050
:10D7E0004CAEFF7F0100000048AEFF7FAB3F3880AA
:10D7F000A0AEFF7F01000000ACAEFF7FB0B0AA80FA
:10D80000E8AEFF7F010000009CAFFF7FAB0EB2804F
:10D8100004B0FF7FB0AF0A80D8B2FF7F01000000E4
:10D82000DCB2FF7FAB3F048024B5FF7F0100000026
:10D8300000B7FF7F0084048014B7FF7F0100000061
:10D8400010B7FF7FB0AD0480ACB9FF7FB0A80380F4
:10D85000CCB9FF7F44FFFF7FD0B9FF7F48FFFF7F38
:10D86000DCB9FF7F010000003CE2FF7F20FFFF7F6B
:10D87000A4E2FF7F0884978004E3FF7F010000009B
:10D880002580000835CD0008C1CD000885CE0008F0
:08D8900009CF00088DCF00084C
:04D898000180000803
:10D89C00010000000024F400CDCB000851D000089A
:10D8AC00000000002CD700084CD700086CD70008EB
:10D8BC00000000000000000000000000000000005C
:10D8CC00000000000000000000000000000000004C
:10D8DC00000000000000000000000000000000003C
:10D8EC00000000000000000000000000000000002C
:10D8FC00000000000000000000000000000000001C
